{
  "contractName": "SampleNftContract",
  "abi": [
    {
      "inputs": [
        {
          "internalType": "uint256",
          "name": "_maxSupply",
          "type": "uint256"
        }
      ],
      "stateMutability": "nonpayable",
      "type": "constructor"
    },
    {
      "anonymous": false,
      "inputs": [
        {
          "indexed": true,
          "internalType": "address",
          "name": "owner",
          "type": "address"
        },
        {
          "indexed": true,
          "internalType": "address",
          "name": "approved",
          "type": "address"
        },
        {
          "indexed": true,
          "internalType": "uint256",
          "name": "tokenId",
          "type": "uint256"
        }
      ],
      "name": "Approval",
      "type": "event"
    },
    {
      "anonymous": false,
      "inputs": [
        {
          "indexed": true,
          "internalType": "address",
          "name": "owner",
          "type": "address"
        },
        {
          "indexed": true,
          "internalType": "address",
          "name": "operator",
          "type": "address"
        },
        {
          "indexed": false,
          "internalType": "bool",
          "name": "approved",
          "type": "bool"
        }
      ],
      "name": "ApprovalForAll",
      "type": "event"
    },
    {
      "anonymous": false,
      "inputs": [
        {
          "indexed": true,
          "internalType": "address",
          "name": "previousOwner",
          "type": "address"
        },
        {
          "indexed": true,
          "internalType": "address",
          "name": "newOwner",
          "type": "address"
        }
      ],
      "name": "OwnershipTransferred",
      "type": "event"
    },
    {
      "anonymous": false,
      "inputs": [
        {
          "indexed": true,
          "internalType": "address",
          "name": "from",
          "type": "address"
        },
        {
          "indexed": true,
          "internalType": "address",
          "name": "to",
          "type": "address"
        },
        {
          "indexed": true,
          "internalType": "uint256",
          "name": "tokenId",
          "type": "uint256"
        }
      ],
      "name": "Transfer",
      "type": "event"
    },
    {
      "inputs": [
        {
          "internalType": "address",
          "name": "to",
          "type": "address"
        },
        {
          "internalType": "uint256",
          "name": "tokenId",
          "type": "uint256"
        }
      ],
      "name": "approve",
      "outputs": [],
      "stateMutability": "nonpayable",
      "type": "function"
    },
    {
      "inputs": [
        {
          "internalType": "address",
          "name": "owner",
          "type": "address"
        }
      ],
      "name": "balanceOf",
      "outputs": [
        {
          "internalType": "uint256",
          "name": "",
          "type": "uint256"
        }
      ],
      "stateMutability": "view",
      "type": "function",
      "constant": true
    },
    {
      "inputs": [
        {
          "internalType": "uint256",
          "name": "tokenId",
          "type": "uint256"
        }
      ],
      "name": "getApproved",
      "outputs": [
        {
          "internalType": "address",
          "name": "",
          "type": "address"
        }
      ],
      "stateMutability": "view",
      "type": "function",
      "constant": true
    },
    {
      "inputs": [
        {
          "internalType": "address",
          "name": "owner",
          "type": "address"
        },
        {
          "internalType": "address",
          "name": "operator",
          "type": "address"
        }
      ],
      "name": "isApprovedForAll",
      "outputs": [
        {
          "internalType": "bool",
          "name": "",
          "type": "bool"
        }
      ],
      "stateMutability": "view",
      "type": "function",
      "constant": true
    },
    {
      "inputs": [],
      "name": "name",
      "outputs": [
        {
          "internalType": "string",
          "name": "",
          "type": "string"
        }
      ],
      "stateMutability": "view",
      "type": "function",
      "constant": true
    },
    {
      "inputs": [],
      "name": "owner",
      "outputs": [
        {
          "internalType": "address",
          "name": "",
          "type": "address"
        }
      ],
      "stateMutability": "view",
      "type": "function",
      "constant": true
    },
    {
      "inputs": [
        {
          "internalType": "uint256",
          "name": "tokenId",
          "type": "uint256"
        }
      ],
      "name": "ownerOf",
      "outputs": [
        {
          "internalType": "address",
          "name": "",
          "type": "address"
        }
      ],
      "stateMutability": "view",
      "type": "function",
      "constant": true
    },
    {
      "inputs": [],
      "name": "renounceOwnership",
      "outputs": [],
      "stateMutability": "nonpayable",
      "type": "function"
    },
    {
      "inputs": [
        {
          "internalType": "address",
          "name": "from",
          "type": "address"
        },
        {
          "internalType": "address",
          "name": "to",
          "type": "address"
        },
        {
          "internalType": "uint256",
          "name": "tokenId",
          "type": "uint256"
        }
      ],
      "name": "safeTransferFrom",
      "outputs": [],
      "stateMutability": "nonpayable",
      "type": "function"
    },
    {
      "inputs": [
        {
          "internalType": "address",
          "name": "from",
          "type": "address"
        },
        {
          "internalType": "address",
          "name": "to",
          "type": "address"
        },
        {
          "internalType": "uint256",
          "name": "tokenId",
          "type": "uint256"
        },
        {
          "internalType": "bytes",
          "name": "_data",
          "type": "bytes"
        }
      ],
      "name": "safeTransferFrom",
      "outputs": [],
      "stateMutability": "nonpayable",
      "type": "function"
    },
    {
      "inputs": [
        {
          "internalType": "address",
          "name": "operator",
          "type": "address"
        },
        {
          "internalType": "bool",
          "name": "approved",
          "type": "bool"
        }
      ],
      "name": "setApprovalForAll",
      "outputs": [],
      "stateMutability": "nonpayable",
      "type": "function"
    },
    {
      "inputs": [],
      "name": "symbol",
      "outputs": [
        {
          "internalType": "string",
          "name": "",
          "type": "string"
        }
      ],
      "stateMutability": "view",
      "type": "function",
      "constant": true
    },
    {
      "inputs": [
        {
          "internalType": "uint256",
          "name": "index",
          "type": "uint256"
        }
      ],
      "name": "tokenByIndex",
      "outputs": [
        {
          "internalType": "uint256",
          "name": "",
          "type": "uint256"
        }
      ],
      "stateMutability": "view",
      "type": "function",
      "constant": true
    },
    {
      "inputs": [
        {
          "internalType": "address",
          "name": "owner",
          "type": "address"
        },
        {
          "internalType": "uint256",
          "name": "index",
          "type": "uint256"
        }
      ],
      "name": "tokenOfOwnerByIndex",
      "outputs": [
        {
          "internalType": "uint256",
          "name": "",
          "type": "uint256"
        }
      ],
      "stateMutability": "view",
      "type": "function",
      "constant": true
    },
    {
      "inputs": [
        {
          "internalType": "uint256",
          "name": "tokenId",
          "type": "uint256"
        }
      ],
      "name": "tokenURI",
      "outputs": [
        {
          "internalType": "string",
          "name": "",
          "type": "string"
        }
      ],
      "stateMutability": "view",
      "type": "function",
      "constant": true
    },
    {
      "inputs": [],
      "name": "totalSupply",
      "outputs": [
        {
          "internalType": "uint256",
          "name": "",
          "type": "uint256"
        }
      ],
      "stateMutability": "view",
      "type": "function",
      "constant": true
    },
    {
      "inputs": [
        {
          "internalType": "address",
          "name": "from",
          "type": "address"
        },
        {
          "internalType": "address",
          "name": "to",
          "type": "address"
        },
        {
          "internalType": "uint256",
          "name": "tokenId",
          "type": "uint256"
        }
      ],
      "name": "transferFrom",
      "outputs": [],
      "stateMutability": "nonpayable",
      "type": "function"
    },
    {
      "inputs": [
        {
          "internalType": "address",
          "name": "newOwner",
          "type": "address"
        }
      ],
      "name": "transferOwnership",
      "outputs": [],
      "stateMutability": "nonpayable",
      "type": "function"
    },
    {
      "inputs": [],
      "name": "mint",
      "outputs": [],
      "stateMutability": "payable",
      "type": "function",
      "payable": true
    },
    {
      "inputs": [],
      "name": "withdraw",
      "outputs": [],
      "stateMutability": "nonpayable",
      "type": "function"
    },
    {
      "inputs": [
        {
          "internalType": "address",
          "name": "to",
          "type": "address"
        }
      ],
      "name": "safeMint",
      "outputs": [],
      "stateMutability": "nonpayable",
      "type": "function"
    },
    {
      "inputs": [
        {
          "internalType": "bytes4",
          "name": "interfaceId",
          "type": "bytes4"
        }
      ],
      "name": "supportsInterface",
      "outputs": [
        {
          "internalType": "bool",
          "name": "",
          "type": "bool"
        }
      ],
      "stateMutability": "view",
      "type": "function",
      "constant": true
    }
  ],
  "bytecode": "0x60a06040523480156200001157600080fd5b5060405162003b8838038062003b888339818101604052810190620000379190620002a9565b6040518060400160405280601281526020017f53616d706c65204e46542050726f6a65637400000000000000000000000000008152506040518060400160405280600381526020017f534e5000000000000000000000000000000000000000000000000000000000008152508160009080519060200190620000bb929190620001e2565b508060019080519060200190620000d4929190620001e2565b505050620000f7620000eb6200011460201b60201c565b6200011c60201b60201c565b600181620001069190620002d5565b6080818152505050620003c8565b600033905090565b6000600a60009054906101000a900473ffffffffffffffffffffffffffffffffffffffff16905081600a60006101000a81548173ffffffffffffffffffffffffffffffffffffffff021916908373ffffffffffffffffffffffffffffffffffffffff1602179055508173ffffffffffffffffffffffffffffffffffffffff168173ffffffffffffffffffffffffffffffffffffffff167f8be0079c531659141344cd1fd0a4f28419497f9722a3daafe3b4186f6b6457e060405160405180910390a35050565b828054620001f0906200031a565b90600052602060002090601f01602090048101928262000214576000855562000260565b82601f106200022f57805160ff191683800117855562000260565b8280016001018555821562000260579182015b828111156200025f57825182559160200191906001019062000242565b5b5090506200026f919062000273565b5090565b5b808211156200028e57600081600090555060010162000274565b5090565b600081519050620002a381620003ae565b92915050565b600060208284031215620002bc57600080fd5b6000620002cc8482850162000292565b91505092915050565b6000620002e28262000310565b9150620002ef8362000310565b92508282101562000305576200030462000350565b5b828203905092915050565b6000819050919050565b600060028204905060018216806200033357607f821691505b602082108114156200034a57620003496200037f565b5b50919050565b7f4e487b7100000000000000000000000000000000000000000000000000000000600052601160045260246000fd5b7f4e487b7100000000000000000000000000000000000000000000000000000000600052602260045260246000fd5b620003b98162000310565b8114620003c557600080fd5b50565b6080516137a4620003e4600039600061076801526137a46000f3fe6080604052600436106101355760003560e01c80634f6ccce7116100ab57806395d89b411161006f57806395d89b4114610405578063a22cb46514610430578063b88d4fde14610459578063c87b56dd14610482578063e985e9c5146104bf578063f2fde38b146104fc57610135565b80634f6ccce71461030c5780636352211e1461034957806370a0823114610386578063715018a6146103c35780638da5cb5b146103da57610135565b806318160ddd116100fd57806318160ddd1461021257806323b872dd1461023d5780632f745c59146102665780633ccfd60b146102a357806340d097c3146102ba57806342842e0e146102e357610135565b806301ffc9a71461013a57806306fdde0314610177578063081812fc146101a2578063095ea7b3146101df5780631249c58b14610208575b600080fd5b34801561014657600080fd5b50610161600480360381019061015c9190612678565b610525565b60405161016e9190612b0a565b60405180910390f35b34801561018357600080fd5b5061018c610537565b6040516101999190612b25565b60405180910390f35b3480156101ae57600080fd5b506101c960048036038101906101c491906126ca565b6105c9565b6040516101d69190612aa3565b60405180910390f35b3480156101eb57600080fd5b506102066004803603810190610201919061263c565b61064e565b005b610210610766565b005b34801561021e57600080fd5b5061022761083a565b6040516102349190612dc7565b60405180910390f35b34801561024957600080fd5b50610264600480360381019061025f9190612536565b610847565b005b34801561027257600080fd5b5061028d6004803603810190610288919061263c565b6108a7565b60405161029a9190612dc7565b60405180910390f35b3480156102af57600080fd5b506102b861094c565b005b3480156102c657600080fd5b506102e160048036038101906102dc91906124d1565b610a17565b005b3480156102ef57600080fd5b5061030a60048036038101906103059190612536565b610ab3565b005b34801561031857600080fd5b50610333600480360381019061032e91906126ca565b610ad3565b6040516103409190612dc7565b60405180910390f35b34801561035557600080fd5b50610370600480360381019061036b91906126ca565b610b6a565b60405161037d9190612aa3565b60405180910390f35b34801561039257600080fd5b506103ad60048036038101906103a891906124d1565b610c1c565b6040516103ba9190612dc7565b60405180910390f35b3480156103cf57600080fd5b506103d8610cd4565b005b3480156103e657600080fd5b506103ef610d5c565b6040516103fc9190612aa3565b60405180910390f35b34801561041157600080fd5b5061041a610d86565b6040516104279190612b25565b60405180910390f35b34801561043c57600080fd5b5061045760048036038101906104529190612600565b610e18565b005b34801561046557600080fd5b50610480600480360381019061047b9190612585565b610f99565b005b34801561048e57600080fd5b506104a960048036038101906104a491906126ca565b610ffb565b6040516104b69190612b25565b60405180910390f35b3480156104cb57600080fd5b506104e660048036038101906104e191906124fa565b6110a2565b6040516104f39190612b0a565b60405180910390f35b34801561050857600080fd5b50610523600480360381019061051e91906124d1565b611136565b005b60006105308261122e565b9050919050565b60606000805461054690612fec565b80601f016020809104026020016040519081016040528092919081815260200182805461057290612fec565b80156105bf5780601f10610594576101008083540402835291602001916105bf565b820191906000526020600020905b8154815290600101906020018083116105a257829003601f168201915b5050505050905090565b60006105d4826112a8565b610613576040517f08c379a000000000000000000000000000000000000000000000000000000000815260040161060a90612ca7565b60405180910390fd5b6004600083815260200190815260200160002060009054906101000a900473ffffffffffffffffffffffffffffffffffffffff169050919050565b600061065982610b6a565b90508073ffffffffffffffffffffffffffffffffffffffff168373ffffffffffffffffffffffffffffffffffffffff1614156106ca576040517f08c379a00000000000000000000000000000000000000000000000000000000081526004016106c190612d27565b60405180910390fd5b8073ffffffffffffffffffffffffffffffffffffffff166106e9611314565b73ffffffffffffffffffffffffffffffffffffffff161480610718575061071781610712611314565b6110a2565b5b610757576040517f08c379a000000000000000000000000000000000000000000000000000000000815260040161074e90612c27565b60405180910390fd5b610761838361131c565b505050565b7f0000000000000000000000000000000000000000000000000000000000000000610791600b6113d5565b11156107d2576040517f08c379a00000000000000000000000000000000000000000000000000000000081526004016107c990612d67565b60405180910390fd5b662386f26fc10000341461081b576040517f08c379a000000000000000000000000000000000000000000000000000000000815260040161081290612da7565b60405180910390fd5b61082e33610829600b6113d5565b6113e3565b610838600b611401565b565b6000600880549050905090565b610858610852611314565b82611417565b610897576040517f08c379a000000000000000000000000000000000000000000000000000000000815260040161088e90612d47565b60405180910390fd5b6108a28383836114f5565b505050565b60006108b283610c1c565b82106108f3576040517f08c379a00000000000000000000000000000000000000000000000000000000081526004016108ea90612b47565b60405180910390fd5b600660008473ffffffffffffffffffffffffffffffffffffffff1673ffffffffffffffffffffffffffffffffffffffff168152602001908152602001600020600083815260200190815260200160002054905092915050565b610954611314565b73ffffffffffffffffffffffffffffffffffffffff16610972610d5c565b73ffffffffffffffffffffffffffffffffffffffff16146109c8576040517f08c379a00000000000000000000000000000000000000000000000000000000081526004016109bf90612cc7565b60405180910390fd5b60003390508073ffffffffffffffffffffffffffffffffffffffff166108fc479081150290604051600060405180830381858888f19350505050158015610a13573d6000803e3d6000fd5b5050565b610a1f611314565b73ffffffffffffffffffffffffffffffffffffffff16610a3d610d5c565b73ffffffffffffffffffffffffffffffffffffffff1614610a93576040517f08c379a0000000000000000000000000000000000000000000000000000000008152600401610a8a90612cc7565b60405180910390fd5b610aa681610aa1600b6113d5565b6113e3565b610ab0600b611401565b50565b610ace83838360405180602001604052806000815250610f99565b505050565b6000610add61083a565b8210610b1e576040517f08c379a0000000000000000000000000000000000000000000000000000000008152600401610b1590612d87565b60405180910390fd5b60088281548110610b58577f4e487b7100000000000000000000000000000000000000000000000000000000600052603260045260246000fd5b90600052602060002001549050919050565b6000806002600084815260200190815260200160002060009054906101000a900473ffffffffffffffffffffffffffffffffffffffff169050600073ffffffffffffffffffffffffffffffffffffffff168173ffffffffffffffffffffffffffffffffffffffff161415610c13576040517f08c379a0000000000000000000000000000000000000000000000000000000008152600401610c0a90612c67565b60405180910390fd5b80915050919050565b60008073ffffffffffffffffffffffffffffffffffffffff168273ffffffffffffffffffffffffffffffffffffffff161415610c8d576040517f08c379a0000000000000000000000000000000000000000000000000000000008152600401610c8490612c47565b60405180910390fd5b600360008373ffffffffffffffffffffffffffffffffffffffff1673ffffffffffffffffffffffffffffffffffffffff168152602001908152602001600020549050919050565b610cdc611314565b73ffffffffffffffffffffffffffffffffffffffff16610cfa610d5c565b73ffffffffffffffffffffffffffffffffffffffff1614610d50576040517f08c379a0000000000000000000000000000000000000000000000000000000008152600401610d4790612cc7565b60405180910390fd5b610d5a6000611751565b565b6000600a60009054906101000a900473ffffffffffffffffffffffffffffffffffffffff16905090565b606060018054610d9590612fec565b80601f0160208091040260200160405190810160405280929190818152602001828054610dc190612fec565b8015610e0e5780601f10610de357610100808354040283529160200191610e0e565b820191906000526020600020905b815481529060010190602001808311610df157829003601f168201915b5050505050905090565b610e20611314565b73ffffffffffffffffffffffffffffffffffffffff168273ffffffffffffffffffffffffffffffffffffffff161415610e8e576040517f08c379a0000000000000000000000000000000000000000000000000000000008152600401610e8590612be7565b60405180910390fd5b8060056000610e9b611314565b73ffffffffffffffffffffffffffffffffffffffff1673ffffffffffffffffffffffffffffffffffffffff16815260200190815260200160002060008473ffffffffffffffffffffffffffffffffffffffff1673ffffffffffffffffffffffffffffffffffffffff16815260200190815260200160002060006101000a81548160ff0219169083151502179055508173ffffffffffffffffffffffffffffffffffffffff16610f48611314565b73ffffffffffffffffffffffffffffffffffffffff167f17307eab39ab6107e8899845ad3d59bd9653f200f220920489ca2b5937696c3183604051610f8d9190612b0a565b60405180910390a35050565b610faa610fa4611314565b83611417565b610fe9576040517f08c379a0000000000000000000000000000000000000000000000000000000008152600401610fe090612d47565b60405180910390fd5b610ff584848484611817565b50505050565b6060611006826112a8565b611045576040517f08c379a000000000000000000000000000000000000000000000000000000000815260040161103c90612d07565b60405180910390fd5b600061104f611873565b9050600081511161106f576040518060200160405280600081525061109a565b8061107984611893565b60405160200161108a929190612a7f565b6040516020818303038152906040525b915050919050565b6000600560008473ffffffffffffffffffffffffffffffffffffffff1673ffffffffffffffffffffffffffffffffffffffff16815260200190815260200160002060008373ffffffffffffffffffffffffffffffffffffffff1673ffffffffffffffffffffffffffffffffffffffff16815260200190815260200160002060009054906101000a900460ff16905092915050565b61113e611314565b73ffffffffffffffffffffffffffffffffffffffff1661115c610d5c565b73ffffffffffffffffffffffffffffffffffffffff16146111b2576040517f08c379a00000000000000000000000000000000000000000000000000000000081526004016111a990612cc7565b60405180910390fd5b600073ffffffffffffffffffffffffffffffffffffffff168173ffffffffffffffffffffffffffffffffffffffff161415611222576040517f08c379a000000000000000000000000000000000000000000000000000000000815260040161121990612b87565b60405180910390fd5b61122b81611751565b50565b60007f780e9d63000000000000000000000000000000000000000000000000000000007bffffffffffffffffffffffffffffffffffffffffffffffffffffffff1916827bffffffffffffffffffffffffffffffffffffffffffffffffffffffff191614806112a157506112a082611a40565b5b9050919050565b60008073ffffffffffffffffffffffffffffffffffffffff166002600084815260200190815260200160002060009054906101000a900473ffffffffffffffffffffffffffffffffffffffff1673ffffffffffffffffffffffffffffffffffffffff1614159050919050565b600033905090565b816004600083815260200190815260200160002060006101000a81548173ffffffffffffffffffffffffffffffffffffffff021916908373ffffffffffffffffffffffffffffffffffffffff160217905550808273ffffffffffffffffffffffffffffffffffffffff1661138f83610b6a565b73ffffffffffffffffffffffffffffffffffffffff167f8c5be1e5ebec7d5bd14f71427d1e84f3dd0314c0f7b2291e5b200ac8c7c3b92560405160405180910390a45050565b600081600001549050919050565b6113fd828260405180602001604052806000815250611b22565b5050565b6001816000016000828254019250508190555050565b6000611422826112a8565b611461576040517f08c379a000000000000000000000000000000000000000000000000000000000815260040161145890612c07565b60405180910390fd5b600061146c83610b6a565b90508073ffffffffffffffffffffffffffffffffffffffff168473ffffffffffffffffffffffffffffffffffffffff1614806114db57508373ffffffffffffffffffffffffffffffffffffffff166114c3846105c9565b73ffffffffffffffffffffffffffffffffffffffff16145b806114ec57506114eb81856110a2565b5b91505092915050565b8273ffffffffffffffffffffffffffffffffffffffff1661151582610b6a565b73ffffffffffffffffffffffffffffffffffffffff161461156b576040517f08c379a000000000000000000000000000000000000000000000000000000000815260040161156290612ce7565b60405180910390fd5b600073ffffffffffffffffffffffffffffffffffffffff168273ffffffffffffffffffffffffffffffffffffffff1614156115db576040517f08c379a00000000000000000000000000000000000000000000000000000000081526004016115d290612bc7565b60405180910390fd5b6115e6838383611b7d565b6115f160008261131c565b6001600360008573ffffffffffffffffffffffffffffffffffffffff1673ffffffffffffffffffffffffffffffffffffffff16815260200190815260200160002060008282546116419190612f02565b925050819055506001600360008473ffffffffffffffffffffffffffffffffffffffff1673ffffffffffffffffffffffffffffffffffffffff16815260200190815260200160002060008282546116989190612e7b565b92505081905550816002600083815260200190815260200160002060006101000a81548173ffffffffffffffffffffffffffffffffffffffff021916908373ffffffffffffffffffffffffffffffffffffffff160217905550808273ffffffffffffffffffffffffffffffffffffffff168473ffffffffffffffffffffffffffffffffffffffff167fddf252ad1be2c89b69c2b068fc378daa952ba7f163c4a11628f55a4df523b3ef60405160405180910390a4505050565b6000600a60009054906101000a900473ffffffffffffffffffffffffffffffffffffffff16905081600a60006101000a81548173ffffffffffffffffffffffffffffffffffffffff021916908373ffffffffffffffffffffffffffffffffffffffff1602179055508173ffffffffffffffffffffffffffffffffffffffff168173ffffffffffffffffffffffffffffffffffffffff167f8be0079c531659141344cd1fd0a4f28419497f9722a3daafe3b4186f6b6457e060405160405180910390a35050565b6118228484846114f5565b61182e84848484611b8d565b61186d576040517f08c379a000000000000000000000000000000000000000000000000000000000815260040161186490612b67565b60405180910390fd5b50505050565b606060405180606001604052806034815260200161373b60349139905090565b606060008214156118db576040518060400160405280600181526020017f30000000000000000000000000000000000000000000000000000000000000008152509050611a3b565b600082905060005b6000821461190d5780806118f69061304f565b915050600a826119069190612ed1565b91506118e3565b60008167ffffffffffffffff81111561194f577f4e487b7100000000000000000000000000000000000000000000000000000000600052604160045260246000fd5b6040519080825280601f01601f1916602001820160405280156119815781602001600182028036833780820191505090505b5090505b60008514611a345760018261199a9190612f02565b9150600a856119a99190613098565b60306119b59190612e7b565b60f81b8183815181106119f1577f4e487b7100000000000000000000000000000000000000000000000000000000600052603260045260246000fd5b60200101907effffffffffffffffffffffffffffffffffffffffffffffffffffffffffffff1916908160001a905350600a85611a2d9190612ed1565b9450611985565b8093505050505b919050565b60007f80ac58cd000000000000000000000000000000000000000000000000000000007bffffffffffffffffffffffffffffffffffffffffffffffffffffffff1916827bffffffffffffffffffffffffffffffffffffffffffffffffffffffff19161480611b0b57507f5b5e139f000000000000000000000000000000000000000000000000000000007bffffffffffffffffffffffffffffffffffffffffffffffffffffffff1916827bffffffffffffffffffffffffffffffffffffffffffffffffffffffff1916145b80611b1b5750611b1a82611d24565b5b9050919050565b611b2c8383611d8e565b611b396000848484611b8d565b611b78576040517f08c379a0000000000000000000000000000000000000000000000000000000008152600401611b6f90612b67565b60405180910390fd5b505050565b611b88838383611f5c565b505050565b6000611bae8473ffffffffffffffffffffffffffffffffffffffff16612070565b15611d17578373ffffffffffffffffffffffffffffffffffffffff1663150b7a02611bd7611314565b8786866040518563ffffffff1660e01b8152600401611bf99493929190612abe565b602060405180830381600087803b158015611c1357600080fd5b505af1925050508015611c4457506040513d601f19601f82011682018060405250810190611c4191906126a1565b60015b611cc7573d8060008114611c74576040519150601f19603f3d011682016040523d82523d6000602084013e611c79565b606091505b50600081511415611cbf576040517f08c379a0000000000000000000000000000000000000000000000000000000008152600401611cb690612b67565b60405180910390fd5b805181602001fd5b63150b7a0260e01b7bffffffffffffffffffffffffffffffffffffffffffffffffffffffff1916817bffffffffffffffffffffffffffffffffffffffffffffffffffffffff191614915050611d1c565b600190505b949350505050565b60007f01ffc9a7000000000000000000000000000000000000000000000000000000007bffffffffffffffffffffffffffffffffffffffffffffffffffffffff1916827bffffffffffffffffffffffffffffffffffffffffffffffffffffffff1916149050919050565b600073ffffffffffffffffffffffffffffffffffffffff168273ffffffffffffffffffffffffffffffffffffffff161415611dfe576040517f08c379a0000000000000000000000000000000000000000000000000000000008152600401611df590612c87565b60405180910390fd5b611e07816112a8565b15611e47576040517f08c379a0000000000000000000000000000000000000000000000000000000008152600401611e3e90612ba7565b60405180910390fd5b611e5360008383611b7d565b6001600360008473ffffffffffffffffffffffffffffffffffffffff1673ffffffffffffffffffffffffffffffffffffffff1681526020019081526020016000206000828254611ea39190612e7b565b92505081905550816002600083815260200190815260200160002060006101000a81548173ffffffffffffffffffffffffffffffffffffffff021916908373ffffffffffffffffffffffffffffffffffffffff160217905550808273ffffffffffffffffffffffffffffffffffffffff16600073ffffffffffffffffffffffffffffffffffffffff167fddf252ad1be2c89b69c2b068fc378daa952ba7f163c4a11628f55a4df523b3ef60405160405180910390a45050565b611f67838383612083565b600073ffffffffffffffffffffffffffffffffffffffff168373ffffffffffffffffffffffffffffffffffffffff161415611faa57611fa581612088565b611fe9565b8173ffffffffffffffffffffffffffffffffffffffff168373ffffffffffffffffffffffffffffffffffffffff1614611fe857611fe783826120d1565b5b5b600073ffffffffffffffffffffffffffffffffffffffff168273ffffffffffffffffffffffffffffffffffffffff16141561202c576120278161223e565b61206b565b8273ffffffffffffffffffffffffffffffffffffffff168273ffffffffffffffffffffffffffffffffffffffff161461206a576120698282612381565b5b5b505050565b600080823b905060008111915050919050565b505050565b6008805490506009600083815260200190815260200160002081905550600881908060018154018082558091505060019003906000526020600020016000909190919091505550565b600060016120de84610c1c565b6120e89190612f02565b90506000600760008481526020019081526020016000205490508181146121cd576000600660008673ffffffffffffffffffffffffffffffffffffffff1673ffffffffffffffffffffffffffffffffffffffff168152602001908152602001600020600084815260200190815260200160002054905080600660008773ffffffffffffffffffffffffffffffffffffffff1673ffffffffffffffffffffffffffffffffffffffff168152602001908152602001600020600084815260200190815260200160002081905550816007600083815260200190815260200160002081905550505b6007600084815260200190815260200160002060009055600660008573ffffffffffffffffffffffffffffffffffffffff1673ffffffffffffffffffffffffffffffffffffffff16815260200190815260200160002060008381526020019081526020016000206000905550505050565b600060016008805490506122529190612f02565b90506000600960008481526020019081526020016000205490506000600883815481106122a8577f4e487b7100000000000000000000000000000000000000000000000000000000600052603260045260246000fd5b9060005260206000200154905080600883815481106122f0577f4e487b7100000000000000000000000000000000000000000000000000000000600052603260045260246000fd5b906000526020600020018190555081600960008381526020019081526020016000208190555060096000858152602001908152602001600020600090556008805480612365577f4e487b7100000000000000000000000000000000000000000000000000000000600052603160045260246000fd5b6001900381819060005260206000200160009055905550505050565b600061238c83610c1c565b905081600660008573ffffffffffffffffffffffffffffffffffffffff1673ffffffffffffffffffffffffffffffffffffffff168152602001908152602001600020600083815260200190815260200160002081905550806007600084815260200190815260200160002081905550505050565b600061241361240e84612e07565b612de2565b90508281526020810184848401111561242b57600080fd5b612436848285612faa565b509392505050565b60008135905061244d816136de565b92915050565b600081359050612462816136f5565b92915050565b6000813590506124778161370c565b92915050565b60008151905061248c8161370c565b92915050565b600082601f8301126124a357600080fd5b81356124b3848260208601612400565b91505092915050565b6000813590506124cb81613723565b92915050565b6000602082840312156124e357600080fd5b60006124f18482850161243e565b91505092915050565b6000806040838503121561250d57600080fd5b600061251b8582860161243e565b925050602061252c8582860161243e565b9150509250929050565b60008060006060848603121561254b57600080fd5b60006125598682870161243e565b935050602061256a8682870161243e565b925050604061257b868287016124bc565b9150509250925092565b6000806000806080858703121561259b57600080fd5b60006125a98782880161243e565b94505060206125ba8782880161243e565b93505060406125cb878288016124bc565b925050606085013567ffffffffffffffff8111156125e857600080fd5b6125f487828801612492565b91505092959194509250565b6000806040838503121561261357600080fd5b60006126218582860161243e565b925050602061263285828601612453565b9150509250929050565b6000806040838503121561264f57600080fd5b600061265d8582860161243e565b925050602061266e858286016124bc565b9150509250929050565b60006020828403121561268a57600080fd5b600061269884828501612468565b91505092915050565b6000602082840312156126b357600080fd5b60006126c18482850161247d565b91505092915050565b6000602082840312156126dc57600080fd5b60006126ea848285016124bc565b91505092915050565b6126fc81612f36565b82525050565b61270b81612f48565b82525050565b600061271c82612e38565b6127268185612e4e565b9350612736818560208601612fb9565b61273f81613185565b840191505092915050565b600061275582612e43565b61275f8185612e5f565b935061276f818560208601612fb9565b61277881613185565b840191505092915050565b600061278e82612e43565b6127988185612e70565b93506127a8818560208601612fb9565b80840191505092915050565b60006127c1602b83612e5f565b91506127cc82613196565b604082019050919050565b60006127e4603283612e5f565b91506127ef826131e5565b604082019050919050565b6000612807602683612e5f565b915061281282613234565b604082019050919050565b600061282a601c83612e5f565b915061283582613283565b602082019050919050565b600061284d602483612e5f565b9150612858826132ac565b604082019050919050565b6000612870601983612e5f565b915061287b826132fb565b602082019050919050565b6000612893602c83612e5f565b915061289e82613324565b604082019050919050565b60006128b6603883612e5f565b91506128c182613373565b604082019050919050565b60006128d9602a83612e5f565b91506128e4826133c2565b604082019050919050565b60006128fc602983612e5f565b915061290782613411565b604082019050919050565b600061291f602083612e5f565b915061292a82613460565b602082019050919050565b6000612942602c83612e5f565b915061294d82613489565b604082019050919050565b6000612965602083612e5f565b9150612970826134d8565b602082019050919050565b6000612988602983612e5f565b915061299382613501565b604082019050919050565b60006129ab602f83612e5f565b91506129b682613550565b604082019050919050565b60006129ce602183612e5f565b91506129d98261359f565b604082019050919050565b60006129f1603183612e5f565b91506129fc826135ee565b604082019050919050565b6000612a14600883612e5f565b9150612a1f8261363d565b602082019050919050565b6000612a37602c83612e5f565b9150612a4282613666565b604082019050919050565b6000612a5a601083612e5f565b9150612a65826136b5565b602082019050919050565b612a7981612fa0565b82525050565b6000612a8b8285612783565b9150612a978284612783565b91508190509392505050565b6000602082019050612ab860008301846126f3565b92915050565b6000608082019050612ad360008301876126f3565b612ae060208301866126f3565b612aed6040830185612a70565b8181036060830152612aff8184612711565b905095945050505050565b6000602082019050612b1f6000830184612702565b92915050565b60006020820190508181036000830152612b3f818461274a565b905092915050565b60006020820190508181036000830152612b60816127b4565b9050919050565b60006020820190508181036000830152612b80816127d7565b9050919050565b60006020820190508181036000830152612ba0816127fa565b9050919050565b60006020820190508181036000830152612bc08161281d565b9050919050565b60006020820190508181036000830152612be081612840565b9050919050565b60006020820190508181036000830152612c0081612863565b9050919050565b60006020820190508181036000830152612c2081612886565b9050919050565b60006020820190508181036000830152612c40816128a9565b9050919050565b60006020820190508181036000830152612c60816128cc565b9050919050565b60006020820190508181036000830152612c80816128ef565b9050919050565b60006020820190508181036000830152612ca081612912565b9050919050565b60006020820190508181036000830152612cc081612935565b9050919050565b60006020820190508181036000830152612ce081612958565b9050919050565b60006020820190508181036000830152612d008161297b565b9050919050565b60006020820190508181036000830152612d208161299e565b9050919050565b60006020820190508181036000830152612d40816129c1565b9050919050565b60006020820190508181036000830152612d60816129e4565b9050919050565b60006020820190508181036000830152612d8081612a07565b9050919050565b60006020820190508181036000830152612da081612a2a565b9050919050565b60006020820190508181036000830152612dc081612a4d565b9050919050565b6000602082019050612ddc6000830184612a70565b92915050565b6000612dec612dfd565b9050612df8828261301e565b919050565b6000604051905090565b600067ffffffffffffffff821115612e2257612e21613156565b5b612e2b82613185565b9050602081019050919050565b600081519050919050565b600081519050919050565b600082825260208201905092915050565b600082825260208201905092915050565b600081905092915050565b6000612e8682612fa0565b9150612e9183612fa0565b9250827fffffffffffffffffffffffffffffffffffffffffffffffffffffffffffffffff03821115612ec657612ec56130c9565b5b828201905092915050565b6000612edc82612fa0565b9150612ee783612fa0565b925082612ef757612ef66130f8565b5b828204905092915050565b6000612f0d82612fa0565b9150612f1883612fa0565b925082821015612f2b57612f2a6130c9565b5b828203905092915050565b6000612f4182612f80565b9050919050565b60008115159050919050565b60007fffffffff0000000000000000000000000000000000000000000000000000000082169050919050565b600073ffffffffffffffffffffffffffffffffffffffff82169050919050565b6000819050919050565b82818337600083830152505050565b60005b83811015612fd7578082015181840152602081019050612fbc565b83811115612fe6576000848401525b50505050565b6000600282049050600182168061300457607f821691505b6020821081141561301857613017613127565b5b50919050565b61302782613185565b810181811067ffffffffffffffff8211171561304657613045613156565b5b80604052505050565b600061305a82612fa0565b91507fffffffffffffffffffffffffffffffffffffffffffffffffffffffffffffffff82141561308d5761308c6130c9565b5b600182019050919050565b60006130a382612fa0565b91506130ae83612fa0565b9250826130be576130bd6130f8565b5b828206905092915050565b7f4e487b7100000000000000000000000000000000000000000000000000000000600052601160045260246000fd5b7f4e487b7100000000000000000000000000000000000000000000000000000000600052601260045260246000fd5b7f4e487b7100000000000000000000000000000000000000000000000000000000600052602260045260246000fd5b7f4e487b7100000000000000000000000000000000000000000000000000000000600052604160045260246000fd5b6000601f19601f8301169050919050565b7f455243373231456e756d657261626c653a206f776e657220696e646578206f7560008201527f74206f6620626f756e6473000000000000000000000000000000000000000000602082015250565b7f4552433732313a207472616e7366657220746f206e6f6e20455243373231526560008201527f63656976657220696d706c656d656e7465720000000000000000000000000000602082015250565b7f4f776e61626c653a206e6577206f776e657220697320746865207a65726f206160008201527f6464726573730000000000000000000000000000000000000000000000000000602082015250565b7f4552433732313a20746f6b656e20616c7265616479206d696e74656400000000600082015250565b7f4552433732313a207472616e7366657220746f20746865207a65726f2061646460008201527f7265737300000000000000000000000000000000000000000000000000000000602082015250565b7f4552433732313a20617070726f766520746f2063616c6c657200000000000000600082015250565b7f4552433732313a206f70657261746f7220717565727920666f72206e6f6e657860008201527f697374656e7420746f6b656e0000000000000000000000000000000000000000602082015250565b7f4552433732313a20617070726f76652063616c6c6572206973206e6f74206f7760008201527f6e6572206e6f7220617070726f76656420666f7220616c6c0000000000000000602082015250565b7f4552433732313a2062616c616e636520717565727920666f7220746865207a6560008201527f726f206164647265737300000000000000000000000000000000000000000000602082015250565b7f4552433732313a206f776e657220717565727920666f72206e6f6e657869737460008201527f656e7420746f6b656e0000000000000000000000000000000000000000000000602082015250565b7f4552433732313a206d696e7420746f20746865207a65726f2061646472657373600082015250565b7f4552433732313a20617070726f76656420717565727920666f72206e6f6e657860008201527f697374656e7420746f6b656e0000000000000000000000000000000000000000602082015250565b7f4f776e61626c653a2063616c6c6572206973206e6f7420746865206f776e6572600082015250565b7f4552433732313a207472616e73666572206f6620746f6b656e2074686174206960008201527f73206e6f74206f776e0000000000000000000000000000000000000000000000602082015250565b7f4552433732314d657461646174613a2055524920717565727920666f72206e6f60008201527f6e6578697374656e7420746f6b656e0000000000000000000000000000000000602082015250565b7f4552433732313a20617070726f76616c20746f2063757272656e74206f776e6560008201527f7200000000000000000000000000000000000000000000000000000000000000602082015250565b7f4552433732313a207472616e736665722063616c6c6572206973206e6f74206f60008201527f776e6572206e6f7220617070726f766564000000000000000000000000000000602082015250565b7f536f6c64206f7574000000000000000000000000000000000000000000000000600082015250565b7f455243373231456e756d657261626c653a20676c6f62616c20696e646578206f60008201527f7574206f6620626f756e64730000000000000000000000000000000000000000602082015250565b7f496e636f727265637420616d6f756e7400000000000000000000000000000000600082015250565b6136e781612f36565b81146136f257600080fd5b50565b6136fe81612f48565b811461370957600080fd5b50565b61371581612f54565b811461372057600080fd5b50565b61372c81612fa0565b811461373757600080fd5b5056fe68747470733a2f2f686172727964656e6c65792e636f6d2f6173736574732f6e66742f73616d706c656e667470726f6a6563742fa26469706673582212202a775ed4df766b21717fe63bca18053871724c0900bc4b53c710aeb833d6439364736f6c63430008020033",
  "immutableReferences": {
    "2140": [
      {
        "length": 32,
        "start": 1896
      }
    ]
  },
  "source": "// SPDX-License-Identifier: MIT\npragma solidity ^0.8.2;\n\nimport \"@openzeppelin/contracts/token/ERC721/ERC721.sol\";\nimport \"@openzeppelin/contracts/token/ERC721/extensions/ERC721Enumerable.sol\";\nimport \"@openzeppelin/contracts/access/Ownable.sol\";\nimport \"@openzeppelin/contracts/utils/Counters.sol\";\n\ncontract SampleNftContract is ERC721, ERC721Enumerable, Ownable {\n    using Counters for Counters.Counter;\n    uint immutable maxSupply;\n\n    Counters.Counter private _tokenIdCounter;\n\n    constructor(uint _maxSupply) ERC721(\"Sample NFT Project\", \"SNP\") {\n        maxSupply = _maxSupply - 1;\n    }\n\n    function _baseURI() internal pure override returns (string memory) {\n        return \"https://harrydenley.com/assets/nft/samplenftproject/\";\n    }\n    \n    function mint() public payable {\n        require(_tokenIdCounter.current() <= maxSupply, \"Sold out\"); // NFT project sold out\n        require(msg.value == 0.01 ether, \"Incorrect amount\"); // Cost to mint 1 NFT is 0.01 ETH (10000000000000000 wei)\n        \n        _safeMint(msg.sender, _tokenIdCounter.current());\n        _tokenIdCounter.increment();\n    }\n    \n    function withdraw() public onlyOwner { // Owner can withdraw all the eth that was paid to mint NFTs\n        address payable recipient = payable(address(msg.sender));\n        recipient.transfer(address(this).balance);\n    }\n\n    function safeMint(address to) public onlyOwner {\n        _safeMint(to, _tokenIdCounter.current());\n        _tokenIdCounter.increment();\n    }\n\n    // The following functions are overrides required by Solidity.\n\n    function _beforeTokenTransfer(address from, address to, uint256 tokenId)\n        internal\n        override(ERC721, ERC721Enumerable)\n    {\n        super._beforeTokenTransfer(from, to, tokenId);\n    }\n\n    function supportsInterface(bytes4 interfaceId)\n        public\n        view\n        override(ERC721, ERC721Enumerable)\n        returns (bool)\n    {\n        return super.supportsInterface(interfaceId);\n    }\n}",
  "sourcePath": "/Users/harrydenley/Documents/Development/409H/sample_nft_project/src-node/contracts/SampleNftContract.sol",
  "compiler": {
    "name": "solc",
    "version": "0.8.2+commit.661d1103.Emscripten.clang"
  },
  "schemaVersion": "3.2.5",
  "updatedAt": "2021-09-15T03:10:06.163Z",
  "networkType": "ethereum",
  "devdoc": {
    "kind": "dev",
    "methods": {
      "approve(address,uint256)": {
        "details": "See {IERC721-approve}."
      },
      "balanceOf(address)": {
        "details": "See {IERC721-balanceOf}."
      },
      "getApproved(uint256)": {
        "details": "See {IERC721-getApproved}."
      },
      "isApprovedForAll(address,address)": {
        "details": "See {IERC721-isApprovedForAll}."
      },
      "name()": {
        "details": "See {IERC721Metadata-name}."
      },
      "owner()": {
        "details": "Returns the address of the current owner."
      },
      "ownerOf(uint256)": {
        "details": "See {IERC721-ownerOf}."
      },
      "renounceOwnership()": {
        "details": "Leaves the contract without owner. It will not be possible to call `onlyOwner` functions anymore. Can only be called by the current owner. NOTE: Renouncing ownership will leave the contract without an owner, thereby removing any functionality that is only available to the owner."
      },
      "safeTransferFrom(address,address,uint256)": {
        "details": "See {IERC721-safeTransferFrom}."
      },
      "safeTransferFrom(address,address,uint256,bytes)": {
        "details": "See {IERC721-safeTransferFrom}."
      },
      "setApprovalForAll(address,bool)": {
        "details": "See {IERC721-setApprovalForAll}."
      },
      "symbol()": {
        "details": "See {IERC721Metadata-symbol}."
      },
      "tokenByIndex(uint256)": {
        "details": "See {IERC721Enumerable-tokenByIndex}."
      },
      "tokenOfOwnerByIndex(address,uint256)": {
        "details": "See {IERC721Enumerable-tokenOfOwnerByIndex}."
      },
      "tokenURI(uint256)": {
        "details": "See {IERC721Metadata-tokenURI}."
      },
      "totalSupply()": {
        "details": "See {IERC721Enumerable-totalSupply}."
      },
      "transferFrom(address,address,uint256)": {
        "details": "See {IERC721-transferFrom}."
      },
      "transferOwnership(address)": {
        "details": "Transfers ownership of the contract to a new account (`newOwner`). Can only be called by the current owner."
      }
    },
    "version": 1
  },
  "userdoc": {
    "kind": "user",
    "methods": {},
    "version": 1
  }
}